HSL60006MTMxMTQ4NDlM        20171110095607AH4.0.6         02029309003   80805341
D478314          000120171017094851MOSTRADOR           S00000000000000P00000591                                N                                                                                                                                                                                                                                                                                                                                                                                                                                                                                                                                                    S084483        ENVASE ESTERIL ORINA                                                                                              M000001000000000000000005900000590000000 0000000000000000000590000000N                                                                  N                                                               N        N        N                                        N
D478315          000120171017095058MOSTRADOR2          S00000000000000P00060011                                YMU                                                                                                                                                                                                                                                                                                                                                                                                                                                                                                                                                  S459966        ABSORB INC ORINA DIA ANAT TENA COMFORT PLUS                                                                       M000001000000000080000311400031140000000 0000000000000000031140000000Y1  SACYL                                   OTHTSI00200028030000310N                                                               N        N        N                                        N
D478315          000220171017095058MOSTRADOR2          S00000000000000P00060011                                YMU                                                                                                                                                                                                                                                                                                                                                                                                                                                                                                                                                  S939579        ACFOL 5 MG 28 COMPRIMIDOS                                                                           8470009395797 S000001000000000028000025000002500000000 0000000000000000002500000000Y1  SACYL                                   OTHTSI00200002250000025N                                                               N        N        N                                        N
D478315          000320171017095058MOSTRADOR2          S00000000000000P00060011                                YMU                                                                                                                                                                                                                                                                                                                                                                                                                                                                                                                                                  S794396        LABILENO 100 MG 56 COMPRIMIDOS DISPERSABLES                                                         8470007943969 S000001000000000056000263700026370000000 0000000000000000026370000000Y1  SACYL                                   OTHTSI00200023730000264N                                                               N        N        N                                        N
D478316          000120171017095218MOSTRADOR2          S00000000000000P00000001                                YMU                                                                                                                                                                                                                                                                                                                                                                                                                                                                                                                                                  R459966        ABSORB INC ORINA DIA ANAT TENA COMFORT PLUS                                                                       M000001000000000080000311400031140000000 0000000000000000031140000000Y1  SACYL                                   OTHTSI00200028030000310N                                                               N        N        N                                        N
D478316          000220171017095218MOSTRADOR2          S00000000000000P00000001                                YMU                                                                                                                                                                                                                                                                                                                                                                                                                                                                                                                                                  S459966        ABSORB INC ORINA DIA ANAT TENA COMFORT PLUS                                                                       M000001000000000080000311400031140000000 0000000000000000031140000000Y1  SACYL                                   OTHTSI00100031140000000N                                                               N        N        N                                        N
D478317          000120171017095355MOSTRADOR1          S00000000000000P00055671                                YMU                                                                                                                                                                                                                                                                                                                                                                                                                                                                                                                                                  S855338        PROTOPIC 1 MG/G POMADA 30 G                                                                         8470008553389 M000001000000000030000409500040950000000 0000000000000000040950000000Y1  SACYL                                   OTHTSI00300024570001637N                                                               N        N        N                                        N
D478317          000220171017095355MOSTRADOR1          S00000000000000P00055671                                YMU                                                                                                                                                                                                                                                                                                                                                                                                                                                                                                                                                  S757419        LEXXEMA 1 MG/G EMULSION TOPICA 1 TUBO 50 G                                                          8470007574194 S000001000000000050000114300011430000000 0000000000000000011430000000Y1  SACYL                                   OTHTSI00300006850000458N                                                               N        N        N                                        N
D478317          000320171017095355MOSTRADOR1          S00000000000000P00055671                                YEP8218462                                                                                                                                                                                                                                                                                                                                                                                               656582                                  FERO-GRADUMET 105MG 30 COMPRIMIDOS LIBER                                                            S656582        FERO-GRADUMET 325 MG (105 MG FE) 30 COMP LIB PROLONGADA                                             8470006565827 M000001000000000030000032700003270000000 0000000000000000003270000000Y00 RECETA ELECTRÓNICA                      GNRTSI00300001960000131N                                                               N        N        N                                        N
D478318          000120171017095849MOSTRADOR2          S00000000000000P00012521                                YMU                                                                                                                                                                                                                                                                                                                                                                                                                                                                                                                                                  S694498        CIPROFLOXACINO TEVAGEN EFG 500 MG 14 COMPRIMIDOS RECUBIERTOS                                        8470006944981 S000001000000000014000023100002310000000 0000000000000000002310000000Y1  SACYL                                   OTHTSI00200002080000023N                                                               N        N        N                                        N
D478318          000220171017095849MOSTRADOR2          S00000000000000P00012521                                YMU                                                                                                                                                                                                                                                                                                                                                                                                                                                                                                                                                  S695559        AMOXICILINA/ACIDO CLAVULANICO TEVAGEN EFG 875/125 MG 30 COMPRIMIDOS RECUBIERTOS                     8470006955598 S000001000000000030000102100010210000000 0000000000000000010210000000Y1  SACYL                                   OTHTSI00200009190000102N                                                               N        N        N                                        N
D478319          000120171017095901MOSTRADOR1          S00000000000000P00056711                                N                                                                                                                                                                                                                                                                                                                                                                                                                                                                                                                                                    S698110        DUPHALAC 10 G 10 STICKS SOLUCION ORAL 15 ML                                                         8470006981108 S000001000000000010000028100002810000000 0000000000000000002810000000N                                                                  N                                                               N        N        N                                        N
D478319          000220171017095901MOSTRADOR1          S00000000000000P00056711                                YEP11946325                                                                                                                                                                                                                                                                                                                                                                                              816462                                  EZETROL 10MG 28 COMPRIMIDOS                                                                         S816462        EZETROL 10 MG 28 COMPRIMIDOS                                                                        8470008164622 M000001000000000028000514000051400000000 0000000000000000051400000000Y00 RECETA ELECTRÓNICA                      GNRTSI00300030840002055N                                                               N        N        N                                        N
D478319          000320171017095901MOSTRADOR1          S00000000000000P00056711                                YEP11946326                                                                                                                                                                                                                                                                                                                                                                                              A02161                                  PARACETAMOL 1000 MG   40   COMPRIMIDOS                                                              S662100        PARACETAMOL TEVA EFG 1 G 40 COMPRIMIDOS                                                             8470006621004 M000001000000000040000025000002500000000 0000000000000000002500000000Y00 RECETA ELECTRÓNICA                      GNRTSI00300001500000100N                                                               N        N        N                                        N
D478320          000120171017095905MOSTRADOR           S00000000000000P00003121                                YMU                                                                                                                                                                                                                                                                                                                                                                                                                                                                                                                                                  S790527        MYCOSTATIN 100000 UI/ML SUSPENSION ORAL 60 ML                                                       8470007905271 S000001000000000060000031200003120000000 0000000000000000003120000000Y1  SACYL                                   OTHTSI00200002810000030N                                                               N        N        N                                        N
D478321          000120171017100129MOSTRADOR1          S00000000000000P00004661                                YMU                                                                                                                                                                                                                                                                                                                                                                                                                                                                                                                                                  S834648        NORFLOXACINO NORMON EFG 400 MG 14 COMPRIMIDOS RECUBIERTOS                                           8470008346486 S000001000000000014000046600004660000000 0000000000000000004660000000Y1  SACYL                                   OTHTSI00200004200000046N                                                               N        N        N                                        N
D478322          000120171017100300MOSTRADOR2          S00000000000000P00019661                                YEP10164500                                                                                                                                                                                                                                                                                                                                                                                              A05000                                  ATORVASTATINA  30 MG 28 COMPRIMIDOS ORAL                                                            S697297        ATORVASTATINA DAVUR 30 MG 28 COMPRIMIDOS RECUBIERTOS                                                8470006972977 M000001000000000028000138200013820000000 0000000000000000013820000000Y00 RECETA ELECTRÓNICA                      GNRTSI00300008280000553N                                                               N        N        N                                        N
D478322          000220171017100300MOSTRADOR2          S00000000000000P00019661                                YEP10164501                                                                                                                                                                                                                                                                                                                                                                                              802033                                  AREMIS 50MG 30 COMPRIMIDOS RECUBIERTOS                                                              S802033        AREMIS 50 MG 30 COMPRIMIDOS RECUBIERTOS                                                             8470008020331 M000001000000000030000058300005830000000 0000000000000000005830000000Y00 RECETA ELECTRÓNICA                      GNRTSI00300005250000057N                                                               N        N        N                                        N
D478323          000120171017100654MOSTRADOR           S00000000000000P0000000111229            O              YEP11154610                                                                                                                                                                                                                                                                                                                                                                                              A00970                                  SIMVASTATINA 20 MG   28   COMPRIMIDOS                                                               S910968        SIMVASTATINA MYLAN EFG 20 MG 28 COMPRIMIDOS                                                         8470009109684 M000001000000000028000015800001580000000 0000000000000000001580000000Y00 RECETA ELECTRÓNICA                      GNRTSI00200001420000016N                                                               N        N        N                                        N
D478323          000220171017100654MOSTRADOR           S00000000000000P0000000111229            O              YEP11154612                                                                                                                                                                                                                                                                                                                                                                                              A00208                                  OMEPRAZOL 20 MG   28   CAPSULAS   ORAL                                                              S709503        OMEPRAZOL MYLAN EFG 20 MG 28 CAPSULAS GASTRORRESISTENTES (FRASCO)                                   8470007095033 M000001000000000028000024100002410000000 0000000000000000002410000000Y00 RECETA ELECTRÓNICA                      GNRTSI00200002170000023N                                                               N        N        N                                        N
D478323          000320171017100654MOSTRADOR           S00000000000000P0000000111229            O              YMU                                                                                                                                                                                                                                                                                                                                                                                                                                                                                                                                                  R709503        OMEPRAZOL MYLAN EFG 20 MG 28 CAPSULAS GASTRORRESISTENTES (FRASCO)                                   8470007095033 S000001000000000028000024100002410000000 0000000000000000002410000000Y1  SACYL                                   OTHTSI00200002170000023N                                                               N        N        N                                        N
D478323          000420171017100654MOSTRADOR           S00000000000000P0000000111229            O              YMU                                                                                                                                                                                                                                                                                                                                                                                                                                                                                                                                                  R910968        SIMVASTATINA MYLAN EFG 20 MG 28 COMPRIMIDOS                                                         8470009109684 S000001000000000028000015800001580000000 0000000000000000001580000000Y1  SACYL                                   OTHTSI00200001420000016N                                                               N        N        N                                        N
D478324          000120171017100751MOSTRADOR2          S00000000000000P00039351                                YEP5205514                                                                                                                                                                                                                                                                                                                                                                                               700558                                  HIDROFEROL 0,266MG 10 AMPOLLAS BEBIBLES                                                             S700558        HIDROFEROL 0.266 MG 10 AMPOLLAS BEBIBLES 1.5 ML                                                     8470007005582 M000002000000000001000103200010320000000 0000000000000000020640000000Y00 RECETA ELECTRÓNICA                      GNRTSI00300012380000825N                                                               N        N        N                                        N
D478324          000220171017100751MOSTRADOR2          S00000000000000P00039351                                YEP5205515                                                                                                                                                                                                                                                                                                                                                                                               A00208                                  OMEPRAZOL 20 MG   28   CAPSULAS   ORAL                                                              S673055        OMEPRAZOL TEVA-RIMAFAR EFG 20 MG 28 CAPSULAS GASTRORRESISTENTES                                     8470006730553 M000001000000000028000024100002410000000 0000000000000000002410000000Y00 RECETA ELECTRÓNICA                      GNRTSI00300001440000096N                                                               N        N        N                                        N
D478324          000320171017100751MOSTRADOR2          S00000000000000P00039351                                YEP5205516                                                                                                                                                                                                                                                                                                                                                                                               672908                                  TARDYFERON 80MG 30 COMPRIMIDOS RECUBIERT                                                            S672908        TARDYFERON 256.3 MG (80 MG FE) 30 COMP LIB PROLONGADADA                                             8470006729083 M000001000000000030000025000002500000000 0000000000000000002500000000Y00 RECETA ELECTRÓNICA                      GNRTSI00300001500000100N                                                               N        N        N                                        N
D478324          000420171017100751MOSTRADOR2          S00000000000000P00039351                                N                                                                                                                                                                                                                                                                                                                                                                                                                                                                                                                                                    S482349        GASA ESTERIL ALGODON HIDROFILO COMPRESAS ALVITA SOBRE 5 U 100 U                                                   M000001000000000100000052900005290000000 0000000000000000005290000000N                                                                  N                                                               N        N        N                                        N
D478324          000520171017100751MOSTRADOR2          S00000000000000P00039351                                N                                                                                                                                                                                                                                                                                                                                                                                                                                                                                                                                                    S169897        3M MEDIPORE+ PAD APOSITO ESTERIL 10 X 10 CM 10 APOSITOS                                             8711428076363 M000001000000000010000085000008500000000 0000000000000000008500000000N                                                                  N                                                               N        N        N                                        N
D478325          000120171017102309MOSTRADOR2          S00000000000000P00010001                                YMU                                                                                                                                                                                                                                                                                                                                                                                                                                                                                                                                                  S714048        ZALDIAR 37.5/325 MG 60 COMPRIMIDOS RECUBIERTOS                                                      8470007140481 S000001000000000060000100000010000000000 0000000000000000010000000000Y1  SACYL                                   OTHTSI00200009000000100N                                                               N        N        N                                        N
D478326          000120171017102405MOSTRADOR           S00000000000000P0000590410924            O              YMU                                                                                                                                                                                                                                                                                                                                                                                                                                                                                                                                                  S672699        AZITROMICINA ALMUS EFG 500 MG 3 COMPRIMIDOS RECUBIERTOS                                             8470006726990 S000001000000000003000059000005900000000 0000000000000000005900000000Y1  SACYL                                   OTHTSI00200005310000058N                                                               N        N        N                                        N
D478327          000120171017102530MOSTRADOR1          S00000000000000P00056201                                YEP12764602                                                                                                                                                                                                                                                                                                                                                                                              A01234                                  INDAPAMIDA 2.5 MG   30   COMPRIMIDOS   O                                                            S915900        INDAPAMIDA NORMON EFG 2.5 MG 30 COMPRIMIDOS RECUBIERTOS                                             8470009159009 M000001000000000030000031200003120000000 0000000000000000003120000000Y00 RECETA ELECTRÓNICA                      GNRTSI00200002810000030N                                                               N        N        N                                        N
D478327          000220171017102530MOSTRADOR1          S00000000000000P00056201                                YEP12764604                                                                                                                                                                                                                                                                                                                                                                                              700539                                  SERETIDE ACCUHALER 50/500MCG/INH 1 INHAL                                                            S700539        SERETIDE ACCUHALER "50/500" MCG POLVO 1 INHALADOR 60 ALVEOLOS                                       8470007005391 M000001000000000060000412800041280000000 0000000000000000041280000000Y00 RECETA ELECTRÓNICA                      GNRTSI00200037140000412N                                                               N        N        N                                        N
D478327          000320171017102530MOSTRADOR1          S00000000000000P00056201                                YEP12764606                                                                                                                                                                                                                                                                                                                                                                                              A06268                                  LEVOCETIRIZINA 5 MG 20 COMPRIMIDOS ORAL                                                             S672942        +                                                                                                   8470006729427 M000002000000000020000059000005900000000 0000000000000000011800000000Y00 RECETA ELECTRÓNICA                      GNRTSI00200010620000117N                                                               N        N        N                                        N
D478328          000120171017102617MOSTRADOR2          S00000000000000P00020511                                YMU                                                                                                                                                                                                                                                                                                                                                                                                                                                                                                                                                  S863407        LOETTE 100/20 MCG 3 X 21 COMPRIMIDOS RECUBIERTOS                                                    8470008634071 M000001000000000063000111300011130000000 0000000000000000011130000000Y1  SACYL                                   OTHTSI00300006680000445N                                                               N        N        N                                        N
D478328          000220171017102617MOSTRADOR2          S00000000000000P00020511                                YMU                                                                                                                                                                                                                                                                                                                                                                                                                                                                                                                                                  S961763        YURELAX 10 MG 30 CAPSULAS                                                                           8470009617639 S000001000000000030000034700003470000000 0000000000000000003470000000Y1  SACYL                                   OTHTSI00300002080000138N                                                               N        N        N                                        N
D478328          000320171017102617MOSTRADOR2          S00000000000000P00020511                                YMU                                                                                                                                                                                                                                                                                                                                                                                                                                                                                                                                                  S702118        AZITROMICINA KERN PHARMA EFG 500 MG 3 COMPRIMIDOS RECUBIERTOS                                       8470007021186 S000001000000000003000059000005900000000 0000000000000000005900000000Y1  SACYL                                   OTHTSI00300003540000235N                                                               N        N        N                                        N
D478329          000120171017102851MOSTRADOR2          S00000000000000P00007261                                YEP10308782                                                                                                                                                                                                                                                                                                                                                                                              A02156                                  DOXAZOSINA 4 MG   28   COMPRIMIDOS DE LI                                                            S661006        DOXAZOSINA NEO TEVA EFG 4 MG 28 COMPRIMIDOS LIBERACION PROLONGADA                                   8470006610060 M000001000000000028000072600007260000000 0000000000000000007260000000Y00 RECETA ELECTRÓNICA                      GNRTSI00200006530000072N                                                               N        N        N                                        N
D478330          000120171017102949MOSTRADOR2          S00000000000000P00006501                                N                                                                                                                                                                                                                                                                                                                                                                                                                                                                                                                                                    S309443        LACER OROS FLUOR PASTA 125 ML                                                                       8430340042804 M000001000000000125000065000006500000000 0000000000000000006500000000N                                                                  N                                                               N        N        N                                        N
D478331          000120171017103117MOSTRADOR2          S00000000000000P00007651                                N                                                                                                                                                                                                                                                                                                                                                                                                                                                                                                                                                    S754960        EVACUOL 7.5 MG/ML GOTAS ORALES SOLUCION 30 ML                                                       8470007549604 S000001000000000030000076500007650000000 0000000000000000007650000000N                                                                  N                                                               N        N        N                                        N
D478332          000120171017104232MOSTRADOR2          S00000000000000P00029251                                YEP12875442                                                                                                                                                                                                                                                                                                                                                                                              655872                                  PARACETAMOL CINFA  1 G    40 SOBRES POLV                                                            S655872        PARACETAMOL CINFA EFG 1 G 40 SOBRES EFERVESCENTES                                                   8470006558720 M000001000000000040000025000002500000000 0000000000000000002500000000Y00 RECETA ELECTRÓNICA                      GNRTSI00400001250000125N                                                               N        N        N                                        N
D478332          000220171017104232MOSTRADOR2          S00000000000000P00029251                                YEP12875444                                                                                                                                                                                                                                                                                                                                                                                              661067                                  ATORVASTATINA NORMON 10MG 28 COMPRIMIDOS                                                            S661067        ATORVASTATINA NORMON EFG 10 MG 28 COMPRIMIDOS RECUBIERTOS                                           8470006610671 M000001000000000028000046100004610000000 0000000000000000004610000000Y00 RECETA ELECTRÓNICA                      GNRTSI00400002300000231N                                                               N        N        N                                        N
D478332          000320171017104232MOSTRADOR2          S00000000000000P00029251                                YEP12012360                                                                                                                                                                                                                                                                                                                                                                                              A02161                                  PARACETAMOL 1000 MG   40   COMPRIMIDOS                                                              S662026        PARACETAMOL CINFA EFG 1 G 40 COMPRIMIDOS                                                            8470006620267 M000001000000000040000025000002500000000 0000000000000000002500000000Y00 RECETA ELECTRÓNICA                      GNRTSI00100002500000000N                                                               N        N        N                                        N
D478332          000420171017104232MOSTRADOR2          S00000000000000P00029251                                YEP12012366                                                                                                                                                                                                                                                                                                                                                                                              A00548                                  CETIRIZINA 10 MG   20   COMPRIMIDOS   OR                                                            S848622        CETIRIZINA ALMUS EFG 10 MG 20 COMPRIMIDOS RECUBIERTOS                                               8470008486229 M000001000000000020000031200003120000000 0000000000000000003120000000Y00 RECETA ELECTRÓNICA                      GNRTSI00100003120000000N                                                               N        N        N                                        N
D478332          000520171017104232MOSTRADOR2          S00000000000000P00029251                                YEP12012369                                                                                                                                                                                                                                                                                                                                                                                              681965                                  ENANTYUM 12.5 MG 40 COMPRIMIDOS RECUBIER                                                            S681965        ENANTYUM 12.5 MG 40 COMPRIMIDOS RECUBIERTOS                                                         8470006819654 M000001000000000040000040000004000000000 0000000000000000004000000000Y00 RECETA ELECTRÓNICA                      GNRTSI00100004000000000N                                                               N        N        N                                        N
D478332          000620171017104232MOSTRADOR2          S00000000000000P00029251                                YEP12216089                                                                                                                                                                                                                                                                                                                                                                                              776773                                  FERPLEX 40MG 20 VIALES BEBIBLES 15ML                                                                S776773        FERPLEX 40 800 MG 20 VIALES BEBIBLES 15 ML                                                          8470007767732 M000001000000000015000125100012510000000 0000000000000000012510000000Y00 RECETA ELECTRÓNICA                      GNRTSI00100012510000000N                                                               N        N        N                                        N
D478333          000120171017104844MOSTRADOR1          S00000000000000P00006041                                N                                                                                                                                                                                                                                                                                                                                                                                                                                                                                                                                                    S652209        IBUPROFENO TEVA EFG 600 MG 40 COMPRIMIDOS RECUBIERTOS                                               8470006522097 S000001000000000040000019600001960000000 0000000000000000001960000000N                                                                  N                                                               N        N        N                                        N
D478333          000220171017104844MOSTRADOR1          S00000000000000P00006041                                N                                                                                                                                                                                                                                                                                                                                                                                                                                                                                                                                                    S666107        DALSY 20 MG/ML SUSPENSION ORAL 200 ML                                                               8470006661079 S000001000000000200000040700004070000000 0000000000000000004070000000N                                                                  N                                                               N        N        N                                        N
D478334          000120171017104905MOSTRADOR2          S00000000000000P00017781                                YEP13003147                                                                                                                                                                                                                                                                                                                                                                                              A04208                                  AMOXICILINA 500 MG - CLAVULANICO ACIDO                                                              S695561        AMOXICILINA/ACIDO CLAVULANICO TEVAGEN EFG 500/125 MG 30 COMPRIMIDOS RECUBIERTOS                     8470006955611 M000001000000000030000058300005830000000 0000000000000000005830000000Y00 RECETA ELECTRÓNICA                      GNRTSI00300003500000233N                                                               N        N        N                                        N
D478334          000220171017104905MOSTRADOR2          S00000000000000P00017781                                YEP13003148                                                                                                                                                                                                                                                                                                                                                                                              A00836                                  DEXKETOPROFENO 25 MG   20   COMPRIMIDOS                                                             S699154        DEXKETOPROFENO TEVA EFG 25 MG 20 COMPRIMIDOS RECUBIERTOS                                            8470006991541 M000001000000000020000040000004000000000 0000000000000000004000000000Y00 RECETA ELECTRÓNICA                      GNRTSI00300002390000160N                                                               N        N        N                                        N
D478334          000320171017104905MOSTRADOR2          S00000000000000P00017781                                N                                                                                                                                                                                                                                                                                                                                                                                                                                                                                                                                                    S172564        NS FLORABIOTIC INSTANT 8 SOBRES                                                                     8470001725646 S000001000000000008000079500007950000000 0000000000000000007950000000N                                                                  N                                                               N        N        N                                        N
D478335          000120171017105408MOSTRADOR2          S00000000000000P00018141                                YEP7565215                                                                                                                                                                                                                                                                                                                                                                                               A00970                                  SIMVASTATINA 20 MG   28   COMPRIMIDOS                                                               S999748        SIMVASTATINA TEVA-RIMAFAR EFG 20 MG 28 COMPRIMIDOS RECUBIERTOS                                      8470009997489 M000001000000000028000015800001580000000 0000000000000000001580000000Y00 RECETA ELECTRÓNICA                      GNRTSI00200001420000016N                                                               N        N        N                                        N
D478335          000220171017105408MOSTRADOR2          S00000000000000P00018141                                YEP7565218                                                                                                                                                                                                                                                                                                                                                                                               654849                                  EXFORGE 5/160MG 28 COMPRIMIDOS RECUBIERT                                                            S654849        EXFORGE 5/160 MG 28 COMPRIMIDOS RECUBIERTOS                                                         8470006548493 M000001000000000028000132600013260000000 0000000000000000013260000000Y00 RECETA ELECTRÓNICA                      GNRTSI00200011930000133N                                                               N        N        N                                        N
D478335          000320171017105408MOSTRADOR2          S00000000000000P00018141                                YEP11772654                                                                                                                                                                                                                                                                                                                                                                                              A00748                                  LORMETAZEPAM 2 MG   20   COMPRIMIDOS   O                                                            S676510        LORMETAZEPAM NORMON EFG 2 MG 20 COMPRIMIDOS                                                         8470006765104 M000001000000000020000023100002310000000 0000000000000000002310000000Y00 RECETA ELECTRÓNICA                      GNRTSI00200002080000023N                                                               N        N        N                                        N
D478335          000420171017105408MOSTRADOR2          S00000000000000P00018141                                N                                                                                                                                                                                                                                                                                                                                                                                                                                                                                                                                                    S434985        ESPARAD LEUKOPOR  5X2,5                                                                             8470004349856 S000001000000000001000009800000980000000 0000000000000000000980000000N                                                                  N                                                               N        N        N                                        N
D478336          000120171017105543MOSTRADOR1          S00000000000000P00009941                                YMU                                                                                                                                                                                                                                                                                                                                                                                                                                                                                                                                                  S857979        IBUPROFENO KERN PHARMA EFG 600 MG 40 COMPRIMIDOS RECUBIERTOS                                        8470008579792 S000001000000000040000019600001960000000 0000000000000000001960000000Y1  SACYL                                   OTHTSI00400000970000098N                                                               N        N        N                                        N
D478336          000220171017105543MOSTRADOR1          S00000000000000P00009941                                YMU                                                                                                                                                                                                                                                                                                                                                                                                                                                                                                                                                  S935049        METAMIZOL NORMON EFG 2 G 5 AMPOLLAS 5 ML                                                            8470009350499 S000001000000000005000021400002140000000 0000000000000000002140000000Y1  SACYL                                   OTHTSI00400001070000107N                                                               N        N        N                                        N
D478336          000320171017105543MOSTRADOR1          S00000000000000P00009941                                YMU                                                                                                                                                                                                                                                                                                                                                                                                                                                                                                                                                  S695561        AMOXICILINA/ACIDO CLAVULANICO TEVAGEN EFG 500/125 MG 30 COMPRIMIDOS RECUBIERTOS                     8470006955611 S000001000000000030000058300005830000000 0000000000000000005830000000Y1  SACYL                                   OTHTSI00400002910000291N                                                               N        N        N                                        N
D478337          000120171017110443MOSTRADOR2          S00000000000000P00013081                                YEP11583470                                                                                                                                                                                                                                                                                                                                                                                              A00575                                  ATORVASTATINA 20 MG   28   COMPRIMIDOS                                                              S673158        ATORVASTATINA TEVAGEN EFG 20 MG 28 COMPRIMIDOS RECUBIERTOS                                          8470006731581 M000001000000000028000092100009210000000 0000000000000000009210000000Y00 RECETA ELECTRÓNICA                      GNRTSI00400004600000461N                                                               N        N        N                                        N
D478337          000220171017110443MOSTRADOR2          S00000000000000P00013081                                YEP11583471                                                                                                                                                                                                                                                                                                                                                                                              A00208                                  OMEPRAZOL 20 MG   28   CAPSULAS   ORAL                                                              S673055        OMEPRAZOL TEVA-RIMAFAR EFG 20 MG 28 CAPSULAS GASTRORRESISTENTES                                     8470006730553 M000001000000000028000024100002410000000 0000000000000000002410000000Y00 RECETA ELECTRÓNICA                      GNRTSI00400001200000120N                                                               N        N        N                                        N
D478337          000320171017110443MOSTRADOR2          S00000000000000P00013081                                YEP11583472                                                                                                                                                                                                                                                                                                                                                                                              A02591                                  ACETILSALICILICO ACIDO 100 MG   30   COM                                                            S841288        ADIRO 100 EFG 100 MG 30 COMPRIMIDOS GASTRORRESISTENTES                                              8470008412884 M000001000000000030000014400001440000000 0000000000000000001440000000Y00 RECETA ELECTRÓNICA                      GNRTSI00400000710000072N                                                               N        N        N                                        N
D478338          000120171017110636MOSTRADOR1          S00000000000000P00059501                                YMU                                                                                                                                                                                                                                                                                                                                                                                                                                                                                                                                                  S710966        ENSTILAR 50/500 MCG/G ESPUMA CUTANEA 1 ENVASE 60 G                                                  8470007109662 S000001000000000060000595000059500000000 0000000000000000059500000000Y1  SACYL                                   OTHTSI00200055260000424N                                                               N        N        N                                        N
D478339          000120171017110920MOSTRADOR           S00000000000000P00002851                                N                                                                                                                                                                                                                                                                                                                                                                                                                                                                                                                                                    S695335        CLAMOXYL 500 MG 30 CAPSULAS                                                                         8470006953358 S000001000000000030000028500002850000000 0000000000000000002850000000N                                                                  N                                                               N        N        N                                        N
D478340          000120171017110954MOSTRADOR           S00000000000000N00002851                                N                                                                                                                                                                                                                                                                                                                                                                                                                                                                                                                                                    R695335        CLAMOXYL 500 MG 30 CAPSULAS                                                                         8470006953358 S000001000000000030000028500002850000000 0000000000000000002850000000N                                                                  N                                                               N        N        N                                        N
D478341          000120171017111015MOSTRADOR           S00000000000000P00002501                                N                                                                                                                                                                                                                                                                                                                                                                                                                                                                                                                                                    S695334        CLAMOXYL 500 MG 20 CAPSULAS                                                                         8470006953341 S000001000000000020000025000002500000000 0000000000000000002500000000N                                                                  N                                                               N        N        N                                        N
D478342          000120171017111655MOSTRADOR2          S00000000000000P00004201                                N                                                                                                                                                                                                                                                                                                                                                                                                                                                                                                                                                    S391854        LACER FLUOR PASTA  75 ML                                                                            8470003918541 S000001000000000075000042000004200000000 0000000000000000004200000000N                                                                  N                                                               N        N        N                                        N
D478343          000120171017111812MOSTRADOR2          S00000000000000P00002061                                YMU                                                                                                                                                                                                                                                                                                                                                                                                                                                                                                                                                  S754267        IBUPROFENO NORMON EFG 400 MG 30 COMPRIMIDOS RECUBIERTOS                                             8470007542674 S000001000000000030000020600002060000000 0000000000000000002060000000Y1  SACYL                                   OTHTSI00300001240000081N                                                               N        N        N                                        N
D478344          000120171017111853MOSTRADOR1          S00000000000000P00007401                                N                                                                                                                                                                                                                                                                                                                                                                                                                                                                                                                                                    S154062        CEPILLO VITIS DURO                                                                                  8427426020825 M000001000000000000000038900003890000000 0000000000000000003890000000N                                                                  N                                                               N        N        N                                        N
D478344          000220171017111853MOSTRADOR1          S00000000000000P00007401                                N                                                                                                                                                                                                                                                                                                                                                                                                                                                                                                                                                    S172405        GUM ORIGINAL WHITE PASTA DENTAL 75 ML 2 TUBOS                                                       7630019901161 M000001000000000150000065000003500000000 0000000000000000003500000000N                                                                  N                                                               N        N        N                                        N
D478345          000120171017112229MOSTRADOR2          S00000000000000P00008941                                N                                                                                                                                                                                                                                                                                                                                                                                                                                                                                                                                                    S701285        VOLTADOL FORTE 20 MG/G GEL TOPICO 50 G                                                              8470007012856 S000001000000000050000094000008940000000 0000000000000000008940000000N                                                                  N                                                               N        N        N                                        N
D478346          000120171017112325MOSTRADOR           S00000000000000P00081171                                YEP11108331                                                                                                                                                                                                                                                                                                                                                                                              A01612                                  FLUVASTATINA 80 MG   28   COMPRIMIDOS DE                                                            S665666        FLUVASTATINA ALTER EFG 80 MG 28 COMPRIMIDOS LIBERACION PROLONGADA                                   8470006656662 M000001000000000028000199800019980000000 0000000000000000019980000000Y00 RECETA ELECTRÓNICA                      GNRTSI00200017980000200N                                                               N        N        N                                        N
D478346          000220171017112325MOSTRADOR           S00000000000000P00081171                                YEP11108332                                                                                                                                                                                                                                                                                                                                                                                              665872                                  RISTFOR 50/1000MG 56 COMPRIMIDOS RECUBIE                                                            S665872        RISTFOR 50/1000 MG 56 COMPRIMIDOS RECUBIERTOS                                                       8470006658727 M000001000000000056000611800061180000000 0000000000000000061180000000Y00 RECETA ELECTRÓNICA                      GNRTSI00200056940000424N                                                               N        N        N                                        N
D478347          000120171017112604MOSTRADOR           S00000000000000P00005621                                YEP11109193                                                                                                                                                                                                                                                                                                                                                                                              A00846                                  LOSARTAN 50 MG   28   COMPRIMIDOS   ORAL                                                            S654661        LOSARTAN NORMON EFG 50 MG 28 COMPRIMIDOS RECUBIERTOS                                                8470006546611 M000001000000000028000041600004160000000 0000000000000000004160000000Y00 RECETA ELECTRÓNICA                      GNRTSI00200003750000041N                                                               N        N        N                                        N
D478347          000220171017112604MOSTRADOR           S00000000000000P00005621                                YEP11109194                                                                                                                                                                                                                                                                                                                                                                                              841288                                  ADIRO 100MG 30 COMPRIMIDOS GASTRORRESIST                                                            S841288        ADIRO 100 EFG 100 MG 30 COMPRIMIDOS GASTRORRESISTENTES                                              8470008412884 M000001000000000030000014400001440000000 0000000000000000001440000000Y00 RECETA ELECTRÓNICA                      GNRTSI00200001300000014N                                                               N        N        N                                        N
D478348          000120171017112700MOSTRADOR           S00000000000000P00000941                                YEP11108869                                                                                                                                                                                                                                                                                                                                                                                              A01293                                  SIMVASTATINA 10 MG   28   COMPRIMIDOS                                                               S737288        SIMVASTATINA CINFA EFG 10 MG 28 COMPRIMIDOS RECUBIERTOS                                             8470007372882 M000001000000000028000009400000940000000 0000000000000000000940000000Y00 RECETA ELECTRÓNICA                      GNRTSI00200000840000010N                                                               N        N        N                                        N
D478349          000120171017113157MOSTRADOR2          S00000000000000P00024631                                YMU                                                                                                                                                                                                                                                                                                                                                                                                                                                                                                                                                  S441428        RODILLERA FARMALASTIC GRANDE                                                                        8470004414288 S000001000000000001000038900003890000000 0000000000000000003890000000Y1  SACYL                                   OTHTSI00200003500000039N                                                               N        N        N                                        N
D478349          000220171017113157MOSTRADOR2          S00000000000000P00024631                                YMU                                                                                                                                                                                                                                                                                                                                                                                                                                                                                                                                                  S669572        SERACTIL 400 MG 30 COMPRIMIDOS RECUBIERTOS                                                          8470006695722 S000001000000000030000087100008710000000 0000000000000000008710000000Y1  SACYL                                   OTHTSI00200007840000086N                                                               N        N        N                                        N
D478349          000320171017113157MOSTRADOR2          S00000000000000P00024631                                YMU                                                                                                                                                                                                                                                                                                                                                                                                                                                                                                                                                  S672900        BROMAZEPAM NORMON EFG 1.5 MG 30 CAPSULAS                                                            8470006729007 S000001000000000030000010900001090000000 0000000000000000001090000000Y1  SACYL                                   OTHTSI00200000980000011N                                                               N        N        N                                        N
D478349          000420171017113157MOSTRADOR2          S00000000000000P00024631                                YMU                                                                                                                                                                                                                                                                                                                                                                                                                                                                                                                                                  S672900        BROMAZEPAM NORMON EFG 1.5 MG 30 CAPSULAS                                                            8470006729007 S000001000000000030000010900001090000000 0000000000000000001090000000Y1  SACYL                                   OTHTSI00200000980000011N                                                               N        N        N                                        N
D478349          000520171017113157MOSTRADOR2          S00000000000000P00024631                                YMU                                                                                                                                                                                                                                                                                                                                                                                                                                                                                                                                                  S673055        OMEPRAZOL TEVA-RIMAFAR EFG 20 MG 28 CAPSULAS GASTRORRESISTENTES                                     8470006730553 S000001000000000028000024100002410000000 0000000000000000002410000000Y1  SACYL                                   OTHTSI00200002170000023N                                                               N        N        N                                        N
D478349          000620171017113157MOSTRADOR2          S00000000000000P00024631                                YMU                                                                                                                                                                                                                                                                                                                                                                                                                                                                                                                                                  S673055        OMEPRAZOL TEVA-RIMAFAR EFG 20 MG 28 CAPSULAS GASTRORRESISTENTES                                     8470006730553 S000001000000000028000024100002410000000 0000000000000000002410000000Y1  SACYL                                   OTHTSI00200002170000023N                                                               N        N        N                                        N
D478349          000720171017113157MOSTRADOR2          S00000000000000P00024631                                YMU                                                                                                                                                                                                                                                                                                                                                                                                                                                                                                                                                  S658257        PARACETAMOL KERN PHARMA EFG 1 G 40 COMPRIMIDOS                                                      8470006582572 S000001000000000040000025000002500000000 0000000000000000002500000000Y1  SACYL                                   OTHTSI00200002250000025N                                                               N        N        N                                        N
D478349          000820171017113157MOSTRADOR2          S00000000000000P00024631                                YMU                                                                                                                                                                                                                                                                                                                                                                                                                                                                                                                                                  S658257        PARACETAMOL KERN PHARMA EFG 1 G 40 COMPRIMIDOS                                                      8470006582572 S000001000000000040000025000002500000000 0000000000000000002500000000Y1  SACYL                                   OTHTSI00200002250000025N                                                               N        N        N                                        N
D478350          000120171017113206MOSTRADOR1          S00000000000000P00042981                                N                                                                                                                                                                                                                                                                                                                                                                                                                                                                                                                                                    S677291        MOVICOL "13.8 G" 30 SOBRES POLVO SOLUCION ORAL                                                      8470006772911 S000001000000000030000161900016190000000 0000000000000000016190000000N                                                                  N                                                               N        N        N                                        N
D478350          000220171017113206MOSTRADOR1          S00000000000000P00042981                                N                                                                                                                                                                                                                                                                                                                                                                                                                                                                                                                                                    S876466        VISCOFRESH 5 MG/ML COLIRIO 30 MONODOSIS SOLUCION 0.4 ML                                             8470008764662 S000001000000000000000080900008090000000 0000000000000000008090000000N                                                                  N                                                               N        N        N                                        N
D478350          000320171017113206MOSTRADOR1          S00000000000000P00042981                                N                                                                                                                                                                                                                                                                                                                                                                                                                                                                                                                                                    S781435        LIZIPAINA 20 COMPRIMIDOS PARA CHUPAR                                                                8470007814351 S000001000000000020000071700007170000000 0000000000000000007170000000N                                                                  N                                                               N        N        N                                        N
D478350          000420171017113206MOSTRADOR1          S00000000000000P00042981                                N                                                                                                                                                                                                                                                                                                                                                                                                                                                                                                                                                    S157168        ORALDINE ENCIAS 400 ML                                                                              8470001571687 S000001000000000400000069000006900000000 0000000000000000006900000000N                                                                  N                                                               N        N        N                                        N
D478350          000520171017113206MOSTRADOR1          S00000000000000P00042981                                YMU                                                                                                                                                                                                                                                                                                                                                                                                                                                                                                                                                  S660239        THERVAN EFG 10 MG 28 COMPRIMIDOS RECUBIERTOS                                                        8470006602393 S000001000000000028000046100004610000000 0000000000000000004610000000Y1  SACYL                                   OTHTSI00200004150000046N                                                               N        N        N                                        N
D478351          000120171017113254MOSTRADOR           S00000000000000P00093041                                YEP8142576                                                                                                                                                                                                                                                                                                                                                                                               A01293                                  SIMVASTATINA 10 MG   28   COMPRIMIDOS                                                               S910950        SIMVASTATINA MYLAN EFG 10 MG 28 COMPRIMIDOS                                                         8470009109509 M000001000000000028000009400000940000000 0000000000000000000940000000Y00 RECETA ELECTRÓNICA                      GNRTSI00300000560000038N                                                               N        N        N                                        N
D478351          000220171017113254MOSTRADOR           S00000000000000P00093041                                YEP8142579                                                                                                                                                                                                                                                                                                                                                                                               A00627                                  LETROZOL 2.5 MG   30   COMPRIMIDOS   ORA                                                            S665064        LETROZOL CINFA EFG 2.5 MG 30 COMPRIMIDOS RECUBIERTOS                                                8470006650646 M000001000000000030000920900092090000000 0000000000000000092090000000Y00 RECETA ELECTRÓNICA                      GNRTSI00300087850000424N                                                               N        N        N                                        N
D478351          000320171017113254MOSTRADOR           S00000000000000P00093041                                YEP10250730                                                                                                                                                                                                                                                                                                                                                                                              866905                                  SEROXAT 20MG 56 COMPRIMIDOS RECUBIERTOS                                                             S866905        SEROXAT 20 MG 56 COMPRIMIDOS RECUBIERTOS                                                            8470008669059 M000001000000000056000121700012170000000 0000000000000000012170000000Y00 RECETA ELECTRÓNICA                      GNRTSI00300010950000121N                                                               N        N        N                                        N
D478351          000420171017113254MOSTRADOR           S00000000000000P00093041                                N                                                                                                                                                                                                                                                                                                                                                                                                                                                                                                                                                    R866905        SEROXAT 20 MG 56 COMPRIMIDOS RECUBIERTOS                                                            8470008669059 S000001000000000056000121700012170000000 0000000000000000012170000000N                                                                  N                                                               N        N        N                                        N
D478352          000120171017113403MOSTRADOR1          S00000000000000P00127161                                YEP12013481                                                                                                                                                                                                                                                                                                                                                                                              935270                                  NEXIUM MUPS 20MG 28 COMPRIMIDOS GASTRORR                                                            S935270        NEXIUM MUPS 20 MG 28 COMPRIMIDOS GASTRORRESISTENTES                                                 8470009352707 M000001000000000028000125500012550000000 0000000000000000012550000000Y00 RECETA ELECTRÓNICA                      GNRTSI00200011290000126N                                                               N        N        N                                        N
D478352          000220171017113403MOSTRADOR1          S00000000000000P00127161                                YEP12013482                                                                                                                                                                                                                                                                                                                                                                                              661537                                  NEUPRO 1MG/24H 28 PARCHES TRANSDERMICOS                                                             S661537        NEUPRO 1 MG/24 H 28 PARCHES TRANSDERMICOS 2.25 MG                                                   8470006615379 M000001000000000028000657300065730000000 0000000000000000065730000000Y00 RECETA ELECTRÓNICA                      GNRTSI00200064570000115N                                                               N        N        N                                        N
D478352          000320171017113403MOSTRADOR1          S00000000000000P00127161                                YEP12013483                                                                                                                                                                                                                                                                                                                                                                                              863431                                  PRITOR 20MG 28 COMPRIMIDOS                                                                          S863431        PRITOR 20 MG 28 COMPRIMIDOS                                                                         8470008634316 M000001000000000028000050000005000000000 0000000000000000005000000000Y00 RECETA ELECTRÓNICA                      GNRTSI00200005000000000N                                                               N        N        N                                        N
D478352          000420171017113403MOSTRADOR1          S00000000000000P00127161                                YEP12013484                                                                                                                                                                                                                                                                                                                                                                                              688232                                  PRISTIQ 100MG 28 COMPRIMIDOS DE LIBERACI                                                            S688232        PRISTIQ 100 MG 28 COMPRIMIDOS LIBERACION PROLONGADA                                                 8470006882320 M000001000000000028000370600037060000000 0000000000000000037060000000Y00 RECETA ELECTRÓNICA                      GNRTSI00200037060000000N                                                               N        N        N                                        N
D478352          000520171017113403MOSTRADOR1          S00000000000000P00127161                                N                                                                                                                                                                                                                                                                                                                                                                                                                                                                                                                                                    S798405        OPTALIDON 500/75 MG 6 SUPOSITORIOS                                                                  8470007984054 S000001000000000006000068200006820000000 0000000000000000006820000000N                                                                  N                                                               N        N        N                                        N
D478353          000120171017113819MOSTRADOR2          S00000000000000P00000941                                YEP11402049                                                                                                                                                                                                                                                                                                                                                                                              A01293                                  SIMVASTATINA 10 MG   28   COMPRIMIDOS                                                               S999749        SIMVASTATINA TEVA-RIMAFAR EFG 10 MG 28 COMPRIMIDOS RECUBIERTOS                                      8470009997496 M000001000000000028000009400000940000000 0000000000000000000940000000Y00 RECETA ELECTRÓNICA                      GNRTSI00200000840000010N                                                               N        N        N                                        N
